:020000040800F2
:1000000000000824BD0B00089D0A0008AB0A000888
:10001000B10A0008B70A0008BD0A00080000000085
:10002000000000000000000000000000C30A0008FB
:10003000D10A000800000000DF0A0008ED0A0008ED
:100040000D0C00080D0C00080D0C00080D0C00082C
:100050000D0C00080D0C00080D0C00080D0C00081C
:100060000D0C00080D0C00080D0C00080D0C00080C
:100070000D0C00080D0C00080D0C00080D0C0008FC
:100080000D0C00080D0C00080D0C00080D0C0008EC
:100090000D0C00080D0C00080D0C00080D0C0008DC
:1000A0000D0C00080D0C00080D0C00080D0C0008CC
:1000B0000D0C00080D0C00080D0C00080D0C0008BC
:1000C0000D0C00080D0C00080D0C00080D0C0008AC
:1000D0000D0C00080D0C00080D0C00080D0C00089C
:1000E0000D0C00080D0C0008000000000D0C0008AD
:1000F0000D0C00080D0C00080D0C00080D0C00087C
:100100000D0C00080D0C00080D0C00080D0C00086B
:100110000D0C00080D0C00080D0C00080D0C00085B
:100120000D0C00080D0C00080D0C00080D0C00084B
:100130000D0C00080D0C00080D0C00080D0C00083B
:1001400000000000000000000000000000000000AF
:100150000D0C00080D0C00080D0C00080D0C00081B
:100160000D0C00080D0C00080D0C00080D0C00080B
:100170000D0C00080D0C00080D0C0008000000001C
:100180000D0C00080D0C00080D0C00080D0C0008EB
:100190000D0C00080D0C00080D0C00080D0C0008DB
:1001A0000D0C00080D0C00080D0C00080D0C0008CB
:1001B0000D0C00080D0C00080D0C00080D0C0008BB
:1001C0000D0C00080D0C00080D0C00080D0C0008AB
:1001D0000D0C00080D0C00080D0C00080D0C00089B
:1001E0000D0C00080D0C00080D0C00080D0C00088B
:1001F0000D0C00080D0C00080D0C00080D0C00087B
:100200000D0C00080D0C00080D0C00080D0C00086A
:100210000D0C00080D0C00080D0C00080D0C00085A
:100220000D0C00080D0C00080D0C0008000000006B
:100230000D0C00080D0C0008000000000D0C00085B
:100240000D0C00080D0C00080D0C00080D0C00082A
:100250000D0C00080D0C00080D0C00080D0C00081A
:100260000D0C00080D0C00080D0C00080D0C00080A
:100270000D0C00080D0C00080D0C0008000000001B
:100280000D0C00080D0C00080D0C0008000000000B
:08029000000000000D0C000845
:1002980010B5054C237833B9044B13B10448AFF3B8
:1002A80000800123237010BD10000024000000000E
:1002B8002462000808B5034B1BB103490348AFF398
:1002C800008008BD0000000014000024246200081B
:1002D800034613F8012B002AFBD1181A013870477E
:1002E80053B94AB9002908BF00281CBF4FF0FF3195
:1002F8004FF0FF3000F072B9ADF1080C6DE904CE93
:1003080000F006F8DDF804E0DDE9022304B07047E8
:100318002DE9F047089E04468846002B4BD18A42B7
:10032800154667D9B2FA82F24AB1C2F1200701FA3A
:1003380002F320FA07F7954047EA030894404FEA8A
:10034800154E230CB8FBFEF71FFA85FC0EFB178829
:1003580043EA084307FB0CF1994209D9EB1807F166
:10036800FF3080F01B81994240F21881023F2B44F4
:100378005B1AA4B2B3FBFEF00EFB103344EA03444D
:1003880000FB0CFCA44509D92C1900F1FF3380F0BF
:100398000781A44540F2048102382C4440EA074012
:1003A800A4EB0C0400271EB1D4400023C6E9004387
:1003B8003946BDE8F0878B4209D9002E00F0EB8062
:1003C8000027C6E9000138463946BDE8F087B3FA88
:1003D80083F7002F47D18B4202D3824200F2FA8082
:1003E800841A61EB030301209846002EE0D0C6E989
:1003F8000048DDE702B9FFDEB2FA82F2002A40F0D7
:100408008F80491B4FEA154E1FFA85F80127B1FB6B
:10041800FEFC230C0EFB1C1143EA014308FB0CF104
:10042800994207D9EB180CF1FF3002D2994200F239
:10043800CD808446591AA3B2B1FBFEF00EFB10140E
:1004480043EA044408FB00F8A04507D92C1900F139
:10045800FF3302D2A04500F2B6801846A4EB080488
:1004680040EA0C409FE7C7F1200CBB4022FA0CFE83
:100478004EEA030E01FA07F420FA0CF521FA0CF300
:100488004FEA1E482543B3FBF8F92C0C08FB193337
:100498001FFA8EFA44EA034309FB0AF49C4202FA63
:1004A80007F200FA07F10BD91EEB030309F1FF303D
:1004B80080F087809C4240F28480A9F1020973444D
:1004C8001B1BADB2B3FBF8F008FB103345EA03443D
:1004D80000FB0AFAA24508D91EEB040400F1FF3319
:1004E8006BD2A24569D90238744440EA0940A0FB9E
:1004F8000289A4EB0A044C45C2464B4654D351D05A
:10050800002E69D0B1EB0A0564EB030404FA0CFC75
:10051800FD40FC404CEA0505C6E90054002747E7C2
:10052800C2F1200320FA03F7954001FA02F021FAFC
:1005380003F34FEA154E3843010CB3FBFEF71FFADD
:1005480085F80EFB173341EA034107FB08F38B429A
:1005580004FA02F407D9691807F1FF3C2FD28B423D
:100568002DD9023F2944CB1A81B2B3FBFEF00EFB12
:10057800103341EA034100FB08F38B4207D969189D
:1005880000F1FF3C17D28B4215D902382944C91A09
:1005980040EA07473BE73746304609E70746E7E6BC
:1005A8001846FBE64145ABD2B8EB020A69EB0E02EE
:1005B80001381346A4E76046E9E7184695E7674619
:1005C800D1E781467CE702382C4447E7ACF1020CBE
:1005D8002B442FE7384608E73746E9E6704700BF5F
:1005E80080B483B000AF78607B6800221A707B68A3
:1005F80000225A707B6800229A707B680022DA70A9
:100608007B6800221A717B6800225A717B6800227D
:100618009A717B680022DA717B6800221A727B6803
:1006280000229A727B680022DA727B6800221A72B2
:100638007B680022DA607B6800221A617B680022EE
:100648005A617B6800229A617B680022DA617B68C4
:1006580000221A627B68002283F8242000BF0C372E
:10066800BD465DF8047B704780B58AB000AF3B4655
:100678001846FFF7B5FF054800F082F90121044844
:1006880000F02BFE642000F04DFBF4E73C6200080C
:100698000004025880B500AF00F0B6FA00F00AF87E
:1006A80000F0ECF800F09EF8FFF7DEFF0023184694
:1006B80080BD000080B5CCB000AF07F1E4034C2248
:1006C8000021184605F0A2FD07F1C40320220021ED
:1006D800184605F09BFD07F108031846BC231A4687
:1006E800002105F093FD022000F012FE3B1D0022C0
:1006F8001A603A4BDB6A394A23F00103D362374B5D
:10070800DB6A03F001023B1D1A60354B9B6923F439
:100718004043334A43F480439361314B9B6903F46C
:1007280040423B1D1A603B1D1B6800BF2C4B9B6958
:1007380003F40053B3F5005FF8D10223C7F8E4309F
:100748000123C7F8F0302023C7F8F4300023C7F896
:10075800083107F1E403184600F012FE0346002BA7
:1007680001D000F02BF93F23C7F8C4300023C7F8A5
:10077800C8300023C7F8CC300023C7F8D030002396
:10078800C7F8D4300023C7F8D8300023C7F8DC30C6
:100798000023C7F8E03007F1C4030021184601F030
:1007A800A7F90346002B01D000F008F907F1080368
:1007B80002221A6007F1080300225A6707F10803AA
:1007C800184601F0F3FC0346002B01D000F0F6F8C0
:1007D80000BF07F59877BD4680BD00BF00040058EC
:1007E8000048025880B500AF224B234A1A60214BBB
:1007F8004FF4E1325A601F4B00229A601D4B0022D1
:10080800DA601C4B00221A611A4B0C225A61194BF0
:1008180000229A61174B0022DA61164B00221A62F5
:10082800144B00225A62134B00229A62114802F0BC
:10083800DBFF0346002B01D000F0C0F800210D4873
:1008480005F0DBFB0346002B01D000F0B7F80021D0
:10085800084805F010FC0346002B01D000F0AEF864
:10086800044805F091FB0346002B01D000F0A6F8E0
:1008780000BF80BD2C000024004C004080B588B02B
:1008880000AF07F10C0300221A605A609A60DA6020
:100898001A61374BD3F8E030354A43F00203C2F807
:1008A800E030334BD3F8E03003F00203BB60BB68A1
:1008B8002F4BD3F8E0302E4A43F00403C2F8E0305F
:1008C8002B4BD3F8E03003F004037B607B68284BA4
:1008D800D3F8E030264A43F01003C2F8E030244B46
:1008E800D3F8E03003F010033B603B68002244F289
:1008F8000101204800F0D8FC00224FF480511E4826
:1009080000F0D2FC002202211C4800F0CDFC44F289
:100918000103FB6001233B6100237B610023BB6172
:1009280007F10C031946134800F00EFB4FF48053EF
:10093800FB6001233B6100237B610023BB6107F15E
:100948000C0319460C4800F0FFFA0223FB60012350
:100958003B6100237B610023BB6107F10C0319464F
:10096800064800F0F1FA00BF2037BD4680BD00BF41
:1009780000440258000402580008025800100258A7
:1009880080B582B000AF78607868FFF7A1FC0346B5
:100998009AB24FF6FF737968064802F075FF4FF672
:1009A800FF7302220449034802F06EFF00BF0837B4
:1009B800BD4680BD2C0000244862000880B400AF0A
:1009C80000BFBD465DF8047B7047000080B483B06B
:1009D80000AF0A4BD3F8F430084A43F00203C2F8D8
:1009E800F430064BD3F8F43003F002037B607B68E5
:1009F80000BF0C37BD465DF8047B704700440258C1
:100A080080B58AB000AF786007F1140300221A603D
:100A18005A609A60DA601A617B681B681A4A9342C6
:100A28002ED11A4BD3F8E830184A43F40023C2F801
:100A3800E830164BD3F8E83003F400233B613B69F8
:100A4800124BD3F8E030114A43F00403C2F8E03007
:100A58000E4BD3F8E03003F00403FB60FB684FF45F
:100A680040637B610223BB610023FB6100233B627F
:100A780008237B6207F114031946054800F064FA5D
:100A880000BF2837BD4680BD004C004000440258D6
:100A98000008025880B400AF00BFBD465DF8047B73
:100AA800704780B400AFFEE780B400AFFEE780B4C3
:100AB80000AFFEE780B400AFFEE780B400AF00BF30
:100AC800BD465DF8047B704780B400AF00BFBD46EB
:100AD8005DF8047B704780B400AF00BFBD465DF889
:100AE800047B704780B500AF00F0FCF800BF80BD04
:100AF80080B400AF294BD3F88830284A43F47003F8
:100B0800C2F88830264B1B68254A43F0010313605E
:100B1800234B00221A61224B1A682149214B1340AA
:100B28000B601F4B00229A611D4B0022DA611C4B9F
:100B380000221A621A4B00229A62194B0022DA62CA
:100B4800174B00221A63164B00225A63144B0022DB
:100B58009A63134B0022DA63114B00221A64104B7C
:100B680000225A640E4B1B680D4A23F4802313603D
:100B78000B4B00221A660C4B1A680C4B1340B3F14E
:100B8800005F02D20A4B01221A60044B4FF0006248
:100B98009A6000BFBD465DF8047B704700ED00E039
:100BA800004402587FEDF6EA0010005C0000FFFFE9
:100BB80008810051DFF834D0002103E00C4B5B586A
:100BC800435004310B480C4B42189A42F6D30B4A57
:100BD80002E0002342F8043B094B9A42F9D3FFF79D
:100BE80087FF05F0EFFAFFF755FD7047000008246E
:100BF8007C6200080000002410000024100000247B
:100C0800BC000024FEE7000080B500AF032000F020
:100C180069F901F011F90146134B9B691B0A03F0AE
:100C28000F03124AD35C03F01F0321FA03F3104A9F
:100C380013600F4B1A680C4B9B6903F00F030B49A9
:100C4800CB5C03F01F0322FA03F30A4A1360002067
:100C580000F012F80346002B01D0012302E0FFF751
:100C6800B5FE0023184680BD004402585C620008A7
:100C7800000000240400002480B582B000AF786032
:100C8800154B1B78002B01D1012321E0134B1A6867
:100C9800114B1B7819464FF47A73B3FBF1F3B2FB8F
:100CA800F3F3184600F043F90346002B01D0012363
:100CB8000EE07B680F2B0AD8002279684FF0FF30CE
:100CC80000F01BF9064A7B681360002300E001234B
:100CD80018460837BD4680BD0C00002400000024DB
:100CE8000800002480B400AF064B1B781A46064B58
:100CF8001B681344044A136000BFBD465DF8047BBB
:100D0800704700BF0C000024B800002480B400AF76
:100D1800034B1B681846BD465DF8047B704700BF4F
:100D2800B800002480B584B000AF7860FFF7EEFF0C
:100D3800B8607B68FB60FB68B3F1FF3F05D0094BE7
:100D48001B781A46FB681344FB6000BFFFF7DEFF01
:100D58000246BB68D31AFA689A42F7D800BF103720
:100D6800BD4680BD0C00002480B400AF034B1B6857
:100D78001B0C1846BD465DF8047B70470010005CEC
:100D880080B485B000AF78607B6803F00703FB6030
:100D98000B4BDB68BB60BA684FF6FF031340BB60C0
:100DA800FB681A02BB681A43064B1343BB60044A2C
:100DB800BB68D36000BF1437BD465DF8047B70473D
:100DC80000ED00E00000FA0580B400AF044BDB68DA
:100DD8001B0A03F007031846BD465DF8047B7047FD
:100DE80000ED00E080B483B000AF03463960FB80BB
:100DF800B7F90630002B0ADB3B68DAB20C49B7F9C1
:100E080006301201D2B20B4483F800230AE03B6893
:100E1800DAB20849FB8803F00F03043B1201D2B28F
:100E28000B441A7600BF0C37BD465DF8047B70474B
:100E380000E100E000ED00E080B489B000AFF860A8
:100E4800B9607A60FB6803F00703FB61FB69C3F1D3
:100E58000703042B28BF0423BB61FB690433062B5B
:100E680002D9FB69033B00E000237B614FF0FF32AE
:100E7800BB6902FA03F3DA43BB681A407B699A40FC
:100E88004FF0FF317B6901FA03F3D9437B680B40CC
:100E9800134318462437BD465DF8047B70470000AD
:100EA80080B582B000AF78607B68013BB3F1807F8A
:100EB80001D301230FE00A4A7B68013B53600F21ED
:100EC8004FF0FF30FFF78EFF054B00229A60044B6E
:100ED80007221A60002318460837BD4680BD00BFA8
:100EE80010E000E080B582B000AF78607868FFF766
:100EF80047FF00BF0837BD4680BD80B586B000AF4C
:100F08000346B9607A60FB81FFF75EFF78617A6813
:100F1800B9687869FFF790FF0246B7F90E301146B5
:100F28001846FFF75FFF00BF1837BD4680BD80B584
:100F380082B000AF78607868FFF7B2FF03461846C2
:100F48000837BD4680BD000080B489B000AF786026
:100F580039600023FB61894B7B6194E13B681A6827
:100F68000121FB6901FA03F313403B613B69002B44
:100F780000F086813B685B68022B03D03B685B68A6
:100F8800122B23D1FB69DA087B68083253F8223028
:100F9800BB61FB6903F007039B000F2202FA03F30E
:100FA800DB43BA691340BB613B681A69FB6903F00C
:100FB80007039B0002FA03F3BA691343BB61FB6999
:100FC800DA087B680832B96943F822107B681B6825
:100FD800BB61FB695B00032202FA03F3DB43BA69D6
:100FE8001340BB613B685B6803F00302FB695B006D
:100FF80002FA03F3BA691343BB617B68BA691A60E2
:101008003B685B68012B0BD03B685B68022B07D001
:101018003B685B68112B03D03B685B68122B30D1AF
:101028007B689B68BB61FB695B00032202FA03F3E0
:10103800DB43BA691340BB613B68DA68FB695B0054
:1010480002FA03F3BA691343BB617B68BA699A6011
:101058007B685B68BB610122FB6902FA03F3DB432F
:10106800BA691340BB613B685B681B0903F0010266
:10107800FB6902FA03F3BA691343BB617B68BA6977
:101088005A607B68DB68BB61FB695B00032202FA7C
:1010980003F3DB43BA691340BB613B689A68FB6999
:1010A8005B0002FA03F3BA691343BB617B68BA6950
:1010B800DA603B685B6803F08053002B00F0E08047
:1010C8002F4BD3F8F4302E4A43F00203C2F8F43021
:1010D8002B4BD3F8F43003F00203FB60FB68294A7A
:1010E800FB699B08023352F82330BB61FB6903F0AC
:1010F80003039B000F2202FA03F3DB43BA69134090
:10110800BB617B68204A934252D07B681F4A934256
:1011180031D07B681E4A93422BD07B681D4A93428C
:1011280025D07B681C4A93421FD07B681B4A934298
:1011380019D07B681A4A934213D07B68194A9342A4
:101148000DD07B68184A934207D07B68174A9342B0
:1011580001D109232DE00A232BE0082329E00723E6
:1011680027E0062325E0052323E0042321E00323C9
:101178001FE002231DE001231BE000BF8000005890
:1011880000440258000400580000025800040258A5
:1011980000080258000C02580010025800140258A7
:1011A80000180258001C0258002002580024025857
:1011B8000023FA6902F0030292009340BA691343CC
:1011C800BB613849FB699B080233BA6941F823209F
:1011D8007B691B68BB613B69DB43BA691340BB6130
:1011E8003B685B6803F48033002B03D0BA693B6922
:1011F8001343BB617B69BA691A607B695B68BB6131
:101208003B69DB43BA691340BB613B685B6803F425
:101218000033002B03D0BA693B691343BB617B6978
:10122800BA695A604FF0B0431B68BB613B69DB4346
:10123800BA691340BB613B685B6803F48013002BF9
:1012480003D0BA693B691343BB614FF0B042BB6935
:1012580013604FF0B0435B68BB613B69DB43BA691D
:101268001340BB613B685B6803F40013002B03D099
:10127800BA693B691343BB614FF0B042BB69536025
:10128800FB690133FB613B681A68FB6922FA03F3C7
:10129800002B7FF463AE00BF2437BD465DF8047BA6
:1012A800704700BF0004005880B483B000AF786076
:1012B8000B467B8013467B707B78002B03D07A88A3
:1012C8007B689A6103E07B881A047B689A6100BF97
:1012D8000C37BD465DF8047B704780B483B000AF1F
:1012E80078600B467B807B685A697B881A407B88CC
:1012F8009A4204D17B881A047B689A6102E07A8852
:101308007B689A6100BF0C37BD465DF8047B704767
:1013180080B584B000AF7860184BDB6803F0040335
:10132800042B08D0154BDB6803F007037A689A4250
:1013380001D001231DE0114BDB6823F007020F49A0
:101348007B681343CB60FFF7E1FCF86009E0FFF727
:10135800DDFC0246FB68D31AB3F57A7F01D9032373
:1013680007E0064B5B6803F40053B3F5005FEED16A
:10137800002318461037BD4680BD00BF00480258FC
:1013880080B58AB000AF78607B68002B01D101235B
:10139800A4E37B681B6803F00103002B00F087803F
:1013A8009A4B1B6903F038037B62984B9B6A3B623C
:1013B8007B6A102B07D07B6A182B10D13B6A03F08D
:1013C8000303022B0BD1914B1B6803F40033002B52
:1013D8006CD07B685B68002B68D101237EE37B6857
:1013E8005B68B3F5803F06D1884B1B68874A43F496
:1013F800803313602EE07B685B68002B0CD1834B35
:101408001B68824A23F480331360804B1B687F4A31
:1014180023F4802313601DE07B685B68B3F5A02F7D
:101428000CD17A4B1B68794A43F480231360774BBD
:101438001B68764A43F4803313600BE0734B1B68D8
:10144800724A23F480331360704B1B686F4A23F48D
:10145800802313607B685B68002B13D0FFF756FC72
:10146800F86108E0FFF752FC0246FB69D31A642BC7
:1014780001D9032332E3654B1B6803F40033002BC7
:10148800F0D014E0FFF742FCF86108E0FFF73EFCFB
:101498000246FB69D31A642B01D903231EE35B4B75
:1014A8001B6803F40033002BF0D100E000BF7B6819
:1014B8001B6803F00203002B00F0B080534B1B693C
:1014C80003F03803BB61514B9B6A7B61BB69002BFE
:1014D80007D0BB69182B49D17B6903F00303002BA4
:1014E80044D14A4B1B6803F00403002B05D07B68EA
:1014F800DB68002B01D10123F0E2444B1B6823F089
:1015080019027B68DB68414913430B60FFF7FEFB58
:10151800F86108E0FFF7FAFB0246FB69D31A022BD1
:1015280001D90323DAE2394B1B6803F00403002BCB
:10153800F0D0FFF719FC024641F203039A420AD899
:10154800324B5B6823F47C327B681B691B032F4991
:1015580013434B6062E02D4B5B6823F0FE427B68CF
:101568001B691B06294913434B6057E07B68DB68FE
:10157800002B38D0254B1B6823F019027B68DB68E9
:10158800224913430B60FFF7C1FBF86108E0FFF73E
:10159800BDFB0246FB69D31A022B01D903239DE246
:1015A8001A4B1B6803F00403002BF0D0FFF7DCFB99
:1015B800024641F203039A420AD8144B5B6823F4AB
:1015C8007C327B681B691B03104913434B6025E081
:1015D8000E4B5B6823F0FE427B681B691B060B49B8
:1015E80013434B601AE0094B1B68084A23F00103B8
:1015F8001360FFF78BFBF8610AE0FFF787FB0246F1
:10160800FB69D31A022B03D9032367E2004402586B
:10161800A04B1B6803F00403002BEED17B681B680A
:1016280003F01003002B00F08F809A4B1B6903F026
:1016380038033B61974B9B6AFB603B69082B07D0DB
:101648003B69182B2DD1FB6803F00303012B28D12C
:10165800904B1B6803F48073002B05D07B68DB6913
:10166800802B01D0012339E2FFF77EFB024641F2CD
:1016780003039A420AD8874B5B6823F0F8427B68D9
:101688001B6A9B06834913434B605DE0814BDB6813
:1016980023F07C527B681B6A1B067E491343CB6090
:1016A80052E07B68DB69002B35D07A4B1B68794A9E
:1016B80043F080031360FFF729FBF86108E0FFF7A8
:1016C80025FB0246FB69D31A022B01D9032305E245
:1016D800704B1B6803F48073002BF0D0FFF744FBBA
:1016E800024641F203039A420AD86A4B5B6823F028
:1016F800F8427B681B6A9B06664913434B6023E0EC
:10170800644BDB6823F07C527B681B6A1B066149CB
:101718001343CB6018E05F4B1B685E4A23F08003DD
:101728001360FFF7F3FAF86108E0FFF7EFFA0246F3
:10173800FB69D31A022B01D90323CFE1554B1B6850
:1017480003F48073002BF0D17B681B6803F0080357
:10175800002B36D07B685B69002B19D04D4B5B6F33
:101768004C4A43F001035367FFF7D0FAF86108E0E9
:10177800FFF7CCFA0246FB69D31A022B01D90323DF
:10178800ACE1444B5B6F03F00203002BF0D018E090
:10179800404B5B6F3F4A23F001035367FFF7B6FAEC
:1017A800F86108E0FFF7B2FA0246FB69D31A022B88
:1017B80001D9032392E1374B5B6F03F00203002B3F
:1017C800F0D17B681B6803F02003002B36D07B68C0
:1017D8009B69002B19D02F4B1B682E4A43F480536A
:1017E8001360FFF793FAF86108E0FFF78FFA0246F3
:1017F800FB69D31A022B01D903236FE1254B1B6820
:1018080003F40053002BF0D018E0224B1B68214A48
:1018180023F480531360FFF779FAF86108E0FFF7C3
:1018280075FA0246FB69D31A022B01D9032355E145
:10183800184B1B6803F40053002BF0D17B681B681E
:1018480003F00403002B00F08680134B1B68124A38
:1018580043F480731360FFF759FAF86108E0FFF763
:1018680055FA0246FB69D31A642B01D9032335E1E3
:10187800094B1B6803F48073002BF0D07B689B68CE
:10188800012B0BD1034B1B6F024A43F00103136773
:1018980032E000BF00440258004802587B689B6849
:1018A800002B0CD18F4B1B6F8E4A23F0010313675B
:1018B8008C4B1B6F8B4A23F0040313671CE07B6877
:1018C8009B68052B0CD1874B1B6F864A43F004039A
:1018D8001367844B1B6F834A43F0010313670BE0C4
:1018E800804B1B6F7F4A23F0010313677D4B1B6FEF
:1018F8007C4A23F0040313677B689B68002B15D090
:10190800FFF704FAF8610AE0FFF700FA0246FB69FC
:10191800D31A41F28832934201D90323DEE0714B96
:101928001B6F03F00203002BEED014E0FFF7EEF973
:10193800F8610AE0FFF7EAF90246FB69D31A41F2B7
:101948008832934201D90323C8E0664B1B6F03F02A
:101958000203002BEED17B685B6A002B00F0BD8090
:10196800604B1B6903F03803182B00F0B4807B68C8
:101978005B6A022B40F095805A4B1B68594A23F04A
:1019880080731360FFF7C2F9F86108E0FFF7BEF94A
:101998000246FB69D31A022B01D903239EE0514B5F
:1019A8001B6803F00073002BF0D14E4B9A6A4E4B24
:1019B80013407A68916A7A68D26A12010A434949DF
:1019C80013438B627B681B6B013BC3F308027B6884
:1019D8005B6B013B5B029BB21A437B689B6B013BD1
:1019E8001B0403F4FE031A437B68DB6B013B1B06F5
:1019F80003F0FE433B4913430B633A4BDB6A394A16
:101A080023F00103D362374B5A6B384B13407A6883
:101A1800926CD200334913434B63324BDB6A23F099
:101A28000C027B681B6C2F491343CB622D4BDB6A7E
:101A380023F002027B685B6C2A491343CB62294B73
:101A4800DB6A284A43F48033D362264BDB6A254A93
:101A580043F40033D362234BDB6A224A43F48023E6
:101A6800D362204BDB6A1F4A43F00103D3621D4B4C
:101A78001B681C4A43F080731360FFF747F9F8614D
:101A880008E0FFF743F90246FB69D31A022B01D994
:101A9800032323E0134B1B6803F00073002BF0D0E3
:101AA8001BE0104B1B680F4A23F080731360FFF78D
:101AB8002DF9F86108E0FFF729F90246FB69D31A06
:101AC800022B01D9032309E0064B1B6803F00073BE
:101AD800002BF0D101E0012300E00023184628374D
:101AE800BD4680BD004402580CFCFFFF0700FFFF05
:101AF80080B584B000AF786039607B68002B01D175
:101B080001238DE18A4B1B6803F00F033A689A4260
:101B180010D9874B1B6823F00F0285493B68134394
:101B28000B60834B1B6803F00F033A689A4201D09D
:101B3800012375E17B681B6803F00403002B10D0B8
:101B48007B681A697B4B9B6903F070039A4208D93A
:101B5800784B9B6923F070027B681B6975491343B6
:101B68008B617B681B6803F00803002B10D07B682F
:101B78005A69704BDB6903F070039A4208D96D4BC0
:101B8800DB6923F070027B685B696A491343CB61A8
:101B98007B681B6803F01003002B10D07B689A69E0
:101BA800644BDB6903F4E0639A4208D9614BDB6953
:101BB80023F4E0627B689B695E491343CB617B68D1
:101BC8001B6803F02003002B10D07B68DA69594B9F
:101BD8001B6A03F070039A4208D9564B1B6A23F01C
:101BE80070027B68DB69534913430B627B681B688F
:101BF80003F00203002B10D07B68DA684D4B9B6919
:101C080003F00F039A4208D94A4B9B6923F00F024D
:101C18007B68DB68474913438B617B681B6803F06B
:101C28000103002B55D0434B9B6923F470627B68FA
:101C38009B68404913438B617B685B68022B07D123
:101C48003C4B1B6803F40033002B21D10123E7E050
:101C58007B685B68032B07D1364B1B6803F0007366
:101C6800002B15D10123DBE07B685B68012B07D1D2
:101C7800304B1B6803F48073002B09D10123CFE09C
:101C88002C4B1B6803F00403002B01D10123C7E090
:101C9800284B1B6923F007027B685B6825491343BF
:101CA8000B61FFF733F8F8600AE0FFF72FF80246F8
:101CB800FB68D31A41F28832934201D90323AFE07B
:101CC8001C4B1B6903F038027B685B68DB009A4297
:101CD800EBD17B681B6803F00203002B10D07B68F4
:101CE800DA68144B9B6903F00F039A4208D2114B30
:101CF8009B6923F00F027B68DB680E4913438B61F5
:101D08000B4B1B6803F00F033A689A4214D2084B36
:101D18001B6823F00F0206493B6813430B60044B12
:101D28001B6803F00F033A689A4205D0012377E055
:101D380000200052004402587B681B6803F004032B
:101D4800002B10D07B681A69374B9B6903F070032E
:101D58009A4208D2344B9B6923F070027B681B6956
:101D6800314913438B617B681B6803F00803002B20
:101D780010D07B685A692C4BDB6903F070039A42D8
:101D880008D2294BDB6923F070027B685B6926491E
:101D98001343CB617B681B6803F01003002B10D042
:101DA8007B689A69204BDB6903F4E0639A4208D2A6
:101DB8001D4BDB6923F4E0627B689B691A49134376
:101DC800CB617B681B6803F02003002B10D07B6875
:101DD800DA69154B1B6A03F070039A4208D2124B5A
:101DE8001B6A23F070027B68DB690F4913430B629F
:101DF80000F022F801460C4B9B691B0A03F00F0305
:101E08000A4AD35C03F01F0321FA03F3084A13605C
:101E1800084B1B681846FEF72FFF0346FB72FB7A38
:101E280018461037BD4680BD004402585C62000861
:101E3800000000240800002480B489B000AFAF4B34
:101E48001B6903F03803182B00F24E8101A252F8E7
:101E580023F000BFC11E0008F1200008F12000088F
:101E6800F1200008F1200008F1200008F120000806
:101E7800F1200008E71E0008F1200008F120000802
:101E8800F1200008F1200008F1200008F1200008E6
:101E9800F1200008ED1E0008F1200008F1200008DC
:101EA800F1200008F1200008F1200008F1200008C6
:101EB800F1200008F31E0008904B1B6803F0200374
:101EC800002B09D08D4B1B68DB0803F003038C4AF9
:101ED80022FA03F3BB610AE1894BBB6107E1894B35
:101EE800BB6104E1884BBB6101E1844B9B6A03F051
:101EF80003037B61814B9B6A1B0903F03F033B6132
:101F08007E4BDB6A03F00103FB607C4B5B6BDB08F9
:101F1800C3F30C03FA6802FB03F307EE903AF8EEFA
:101F2800677AC7ED027A3B69002B00F0DA807B699B
:101F3800012B5AD0012B02D3022B78D099E06F4B9A
:101F48001B6803F02003002B2DD06C4B1B68DB08AB
:101F580003F003036A4A22FA03F37B607B6807EE07
:101F6800903AF8EE676A3B6907EE903AF8EE677ABE
:101F780086EEA77A614B1B6BC3F3080307EE903A12
:101F8800F8EE676A97ED026ADFED605AC6EE257AC9
:101F980076EEA77AF7EE006A77EEA67A67EE277AEA
:101FA800C7ED077A87E03B6907EE903AF8EE677A63
:101FB800DFED576A86EEA77A504B1B6BC3F3080315
:101FC80007EE903AF8EE676A97ED026ADFED4F5A2E
:101FD800C6EE257A76EEA77AF7EE006A77EEA67A4D
:101FE80067EE277AC7ED077A65E03B6907EE903A16
:101FF800F8EE677ADFED476A86EEA77A3F4B1B6BF0
:10200800C3F3080307EE903AF8EE676A97ED026AA1
:10201800DFED3E5AC6EE257A76EEA77AF7EE006A2D
:1020280077EEA67A67EE277AC7ED077A43E03B6931
:1020380007EE903AF8EE677ADFED376A86EEA77A10
:102048002E4B1B6BC3F3080307EE903AF8EE676A52
:1020580097ED026ADFED2D5AC6EE257A76EEA77A5D
:10206800F7EE006A77EEA67A67EE277AC7ED077A69
:1020780021E03B6907EE903AF8EE677ADFED256AD2
:1020880086EEA77A1D4B1B6BC3F3080307EE903A45
:10209800F8EE676A97ED026ADFED1C5AC6EE257AFC
:1020A80076EEA77AF7EE006A77EEA67A67EE277AD9
:1020B800C7ED077A00BF114B1B6B5B0A03F07F0368
:1020C80001333B603B6807EE903AB8EE677AD7ED8C
:1020D800076AC6EE877AFCEEE77A17EE903ABB619C
:1020E80005E00023BB6102E0064BBB6100BFBB6992
:1020F80018462437BD465DF8047B704700440258F3
:102108000090D00300093D0040787D0100000046A2
:102118000024744C0024744A20BCBE4B80B500AF28
:1021280001F0E2F90146084B9B6903F00F03074AE7
:10213800D35C03F01F0321FA03F3054A1360044B31
:102148001B68184680BD00BF004402585C62000846
:102158000400002480B500AFFFF7E0FF0146064BFE
:10216800DB691B0903F00703044AD35C03F01F0370
:1021780021FA03F3184680BD004402585C62000847
:1021880080B500AFFFF7CAFF0146064BDB691B0AA3
:1021980003F00703044AD35C03F01F0321FA03F397
:1021A800184680BD004402585C62000880B586B0BD
:1021B80000AF78600023FB750023BB757B681B6844
:1021C80003F00063002B3DD07B685B6EB3F5801F86
:1021D80013D0B3F5801F02D8002B07D01FE0B3F54A
:1021E800001F13D0B3F5401F1CD018E0AF4BDB6ABB
:1021F800AE4A43F40033D36215E07B68043302210E
:10220800184601F08DF90346FB750CE07B68243312
:102218000221184601F036FA0346FB7503E0012354
:10222800FB7500E000BFFB7D002B09D19F4B1B6DA8
:1022380023F440127B685B6E9C4913430B6501E0F5
:10224800FB7DBB757B681B6803F48073002B3DD056
:102258007B685B6D042B26D801A252F823F000BFDF
:102268007D2200088B2200089D220008B522000864
:10227800B52200088D4BDB6A8C4A43F40033D362E5
:1022880015E07B6804330021184601F049F903463C
:10229800FB750CE07B6824330021184601F0F2F945
:1022A8000346FB7503E00123FB7500E000BFFB7DDF
:1022B800002B09D17D4B1B6D23F007027B685B6DFA
:1022C8007A4913430B6501E0FB7DBB757B681B688E
:1022D80003F40073002B3ED07B689B6D802B1CD0D1
:1022E800802B04D8002B08D0402B0DD01EE0C02B2B
:1022F8001FD0B3F5807F1ED018E06C4BDB6A6B4AA9
:1023080043F40033D36217E07B6804330021184696
:1023180001F006F90346FB750EE07B6824330021C3
:10232800184601F0AFF90346FB7505E00123FB757C
:1023380002E000BF00E000BFFB7D002B09D15B4B32
:102348001B6D23F4E0727B689B6D584913430B6542
:1023580001E0FB7DBB757B681B6803F48063002B81
:1023680044D07B68D3F8A430B3F5800F1FD0B3F501
:10237800800F05D8002B0AD0B3F5001F0ED01FE040
:10238800B3F5C00F1FD0B3F5000F1ED018E0474BB0
:10239800DB6A464A43F40033D36217E07B680433B0
:1023A8000021184601F0BCF80346FB750EE07B6877
:1023B80024330021184601F065F90346FB7505E052
:1023C8000123FB7502E000BF00E000BFFB7D002B8E
:1023D8000AD1364B9B6D23F460027B68D3F8A43096
:1023E800324913438B6501E0FB7DBB757B681B6835
:1023F80003F40063002B44D07B68D3F8A830B3F112
:10240800007F1FD0B3F1007F05D8002B0AD0B3F1AD
:10241800807F0ED01FE0B3F1407F1FD0B3F1806FF3
:102428001ED018E0214BDB6A204A43F40033D36204
:1024380017E07B6804330021184601F071F8034661
:10244800FB750EE07B6824330021184601F01AF969
:102458000346FB7505E00123FB7502E000BF00E0C1
:1024680000BFFB7D002B0AD1104B9B6D23F0E0626F
:102478007B68D3F8A8300D4913438B6501E0FB7DD9
:10248800BB757B681B6803F00073002B35D07B6835
:102498009B6C102B0CD0102B02D8002B1BD017E0F4
:1024A800202B0CD0302B18D012E000BF004402586B
:1024B800AF4BDB6AAE4A43F40033D3620EE07B686D
:1024C80004330221184601F02BF80346FB7505E09A
:1024D8000123FB7502E000BF00E000BFFB7D002B7D
:1024E80009D1A34BDB6C23F030027B689B6CA049BD
:1024F8001343CB6401E0FB7DBB757B681B6803F469
:102508008053002B42D07B68DB6DB3F5005F1FD092
:10251800B3F5005F05D8002B0AD0B3F5805F0ED065
:102528001FE0B3F5405F1FD0B3F5804F1ED018E011
:102538008F4BDB6A8E4A43F40033D36217E07B6823
:1025480004330021184600F0EBFF0346FB750EE04C
:102558007B6824330021184601F094F80346FB7584
:1025680005E00123FB7502E000BF00E000BFFB7D32
:10257800002B09D17E4B1B6D23F4E0427B68DB6D99
:102588007B4913430B6501E0FB7DBB757B681B68CA
:1025980003F40053002B42D07B681B6EB3F5003F59
:1025A8001BD0B3F5003F05D8002B22D0B3F5803FF0
:1025B8000AD01BE0B3F5802F1DD0B3F5A02F1CD097
:1025C800B3F5403F1BD011E07B6804330121184666
:1025D80000F0A6FF0346FB7512E07B682433012157
:1025E800184601F04FF80346FB7509E00123FB7517
:1025F80006E000BF04E000BF02E000BF00E000BF4B
:10260800FB7D002B09D15A4B1B6D23F4E0227B681C
:102618001B6E574913430B6501E0FB7DBB757B6857
:102628001B6803F48043002B44D07B68D3F8AC309C
:10263800B3F1005F1BD0B3F1005F05D8002B22D0A7
:10264800B3F1805F0AD01BE0B3F1804F1DD0B3F126
:10265800A04F1CD0B3F1405F1BD011E07B6804335E
:102668000121184600F05CFF0346FB7512E07B6809
:1026780024330121184601F005F80346FB7509E0EB
:102688000123FB7506E000BF04E000BF02E000BFC5
:1026980000E000BFFB7D002B0AD1354B9B6D23F07A
:1026A800E0427B68D3F8AC30314913438B6501E0D5
:1026B800FB7DBB757B681B6803F40043002B2DD0A2
:1026C8007B68DB6EB3F1805F05D0B3F1005F09D0A2
:1026D800002B13D00FE0264BDB6A254A43F4003366
:1026E800D3620CE07B6804330121184600F018FF20
:1026F8000346FB7503E00123FB7500E000BFFB7D8B
:10270800002B09D11A4B1B6D23F040527B68DB6EFE
:10271800174913430B6501E0FB7DBB757B681B689C
:1027280003F08073002B35D07B685B6C032B1BD8C0
:1027380001A252F823F000BF7D27000851270008A6
:102748005F2700087D270008094BDB6A084A43F425
:102758000033D3620FE07B6804330221184600F08F
:10276800DFFE0346FB7506E00123FB7503E000BFAF
:102778000044025800BFFB7D002B09D1BA4BDB6C2B
:1027880023F003027B685B6CB7491343CB6401E019
:10279800FB7DBB757B681B6803F48003002B00F08E
:1027A8008680B24B1B68B14A43F480731360FEF70E
:1027B800ADFA386109E0FEF7A9FA02463B69D31A77
:1027C800642B02D90323FB7505E0A84B1B6803F4AF
:1027D8008073002BEFD0FB7D002B66D1A24B1A6FC4
:1027E8007B68D3F8B030534003F44073002B13D008
:1027F8009D4B1B6F23F44073FB609B4B1B6F9A4AE6
:1028080043F480331367984B1B6F974A23F4803344
:102818001367954AFB6813677B68D3F8B030B3F544
:10282800807F15D1FEF772FA38610BE0FEF76EFA79
:1028380002463B69D31A41F28832934202D90323F4
:10284800FB7505E0884B1B6F03F00203002BEDD0EE
:10285800FB7D002B26D17B68D3F8B03003F440739E
:10286800B3F5407F0DD1804B1B6923F47C527B6804
:10287800D3F8B03019097E4B0B407B4913430B61E9
:1028880005E0794B1B69784A23F47C531361764B36
:102898001A6F7B68D3F8B030C3F30B037249134344
:1028A8000B6704E0FB7DBB7501E0FB7DBB757B68B6
:1028B8001B6803F00103002B7DD07B689B6F282BDE
:1028C80066D801A252F823F09F2900089929000828
:1028D80099290008992900089929000899290008C8
:1028E80099290008992900087529000899290008DC
:1028F80099290008992900089929000899290008A8
:1029080099290008992900088729000899290008A9
:102918009929000899290008992900089929000887
:1029280099290008992900089F2900089929000871
:102938009929000899290008992900089929000867
:1029480099290008992900089F2900089929000851
:102958009929000899290008992900089929000847
:1029680099290008992900089F2900087B680433E1
:102978000121184600F0D4FD0346FB750CE07B6886
:1029880024330121184600F07DFE0346FB7503E061
:102998000123FB7500E000BFFB7D002B09D1324B02
:1029A8005B6D23F038027B689B6F2F4913434B659F
:1029B80001E0FB7DBB757B681B6803F00203002BFD
:1029C80037D07B685B6F052B20D801A252F823F023
:1029D8001B2A0008F1290008032A00081B2A0008FE
:1029E8001B2A00081B2A00087B68043301211846AB
:1029F80000F096FD0346FB750CE07B68243301214B
:102A0800184600F03FFE0346FB7503E00123FB7503
:102A180000E000BFFB7D002B09D1134B5B6D23F059
:102A280007027B685B6F104913434B6501E0FB7D30
:102A3800BB757B681B6803F00403002B40D07B68E0
:102A4800D3F89030052B27D801A252F823F000BF05
:102A5800A72A00087D2A00088F2A0008A72A00084C
:102A6800A72A0008A72A000800440258004802586C
:102A7800CFFFFF007B6804330121184600F050FDAA
:102A88000346FB750CE07B6824330121184600F0EF
:102A9800F9FD0346FB7503E00123FB7500E000BF69
:102AA800FB7D002B0AD1B34B9B6D23F007027B689B
:102AB800D3F89030AF4913438B6501E0FB7DBB75BC
:102AC8007B681B6803F02003002B44D07B68D3F895
:102AD8008C30B3F1005F1BD0B3F1005F05D8002B39
:102AE80022D0B3F1805F0AD01BE0B3F1804F1DD034
:102AF800B3F1A04F1CD0B3F1405F1BD011E07B684D
:102B080004330021184600F00BFD0346FB7512E064
:102B18007B6824330221184600F0B4FD0346FB7598
:102B280009E00123FB7506E000BF04E000BF02E0F6
:102B380000BF00E000BFFB7D002B0AD18D4B5B6D11
:102B480023F0E0427B68D3F88C308A4913434B6505
:102B580001E0FB7DBB757B681B6803F04003002B1D
:102B680044D07B68D3F89830B3F5006F1BD0B3F529
:102B7800006F05D8002B22D0B3F5806F0AD01BE078
:102B8800B3F5805F1DD0B3F5A05F1CD0B3F5406FDF
:102B98001BD011E07B6804330021184600F0C0FC0C
:102BA8000346FB7512E07B6824330221184600F0C7
:102BB80069FD0346FB7509E00123FB7506E000BFCC
:102BC80004E000BF02E000BF00E000BFFB7D002B77
:102BD8000AD1684B9B6D23F4E0527B68D3F8983098
:102BE800644913438B6501E0FB7DBB757B681B68FB
:102BF80003F08003002B44D07B68D3F89C30B3F5F6
:102C0800804F1BD0B3F5804F05D8002B22D0B3F5E9
:102C1800005F0AD01BE0B3F5004F1DD0B3F5204F7D
:102C28001CD0B3F5C04F1BD011E07B6804330021E2
:102C3800184600F075FC0346FB7512E07B682433E8
:102C48000221184600F01EFD0346FB7509E001232A
:102C5800FB7506E000BF04E000BF02E000BF00E033
:102C680000BFFB7D002B0AD1424B9B6D23F46042D1
:102C78007B68D3F89C303F4913438B6501E0FB7DAB
:102C8800BB757B681B6803F00803002B1BD07B68AF
:102C9800D3F88030B3F5805F0BD17B6824330221F1
:102CA800184600F0EFFC0346002B0CD00123BB753F
:102CB80009E0304B5B6D23F440527B68D3F88030D9
:102CC8002C4913434B657B681B6803F01003002BEA
:102CD8001BD07B68D3F89430B3F5807F0BD17B6829
:102CE80024330221184600F0CDFC0346002B0CD0FB
:102CF8000123BB7509E01F4B9B6D23F440727B6871
:102D0800D3F894301B4913438B657B681B6803F425
:102D18000023002B32D07B68D3F8A030B3F5803F76
:102D28000DD0B3F5003F16D0002B11D17B680433CA
:102D38000021184600F0F4FB0346FB750CE07B68A5
:102D480024330221184600F09DFC0346FB7503E07E
:102D58000123FB7500E000BFFB7D002B0CD1054B68
:102D68009B6D23F440327B68D3F8A03001491343AC
:102D78008B6503E000440258FB7DBB757B681B68CC
:102D880003F48023002B2FD07B68D3F88430B3F56D
:102D9800001F0CD0B3F5401F15D0B3F5801F0FD11D
:102DA800794BDB6A784A43F40033D3620CE07B68E2
:102DB80024330121184600F065FC0346FB7503E047
:102DC8000123FB7500E000BFFB7D002B0AD16E4B91
:102DD8005B6D23F440127B68D3F884306A4913434F
:102DE8004B6501E0FB7DBB757B681B6803F4803392
:102DF800002B29D07B68DB6C002B03D0B3F5803F18
:102E080007D00FE0604BDB6A5F4A43F40033D362BC
:102E18000BE07B6804330221184600F081FB03466F
:102E2800FB7502E00123FB7500BFFB7D002B09D178
:102E3800554BDB6C23F480327B68DB6C52491343BF
:102E4800CB6401E0FB7DBB757B681B6803F0005316
:102E5800002B0AD07B6824330221184600F012FCAC
:102E68000346002B01D00123BB757B681B6803F464
:102E78000033002B2FD07B68DB6FB3F5807F0CD03D
:102E8800B3F5807F02D8002B11D00DE0B3F5007F99
:102E98000FD0B3F5407F0ED006E03B4BDB6A3A4AD1
:102EA80043F40033D36207E00123FB7504E000BF5D
:102EB80002E000BF00E000BFFB7D002B09D1324BD0
:102EC8005B6D23F440727B68DB6F2F4913434B65BE
:102ED80001E0FB7DBB757B681B6803F48013002B46
:102EE80008D0294B1B6D23F000427B681B6F2649D5
:102EF80013430B657B681B6803F08053002B09D0D4
:102F0800214B1B6923F480427B68D3F8B4301E49F7
:102F180013430B617B681B6803F40013002B08D074
:102F2800194B1B6D23F080727B689B6E1649134307
:102F38000B657B681B6803F08043002B0DD0124B98
:102F48001B69114A23F4004313610F4B1A697B680C
:102F5800D3F8B8300C4913430B617B681B68002B0E
:102F680008DA094BDB6C23F040527B681B6D06497D
:102F78001343CB64BB7D002B01D1002300E0012368
:102F880018461837BD4680BD0044025880B500AFCA
:102F9800FFF7C4F80146064B1B6A1B0903F0070339
:102FA800044AD35C03F01F0321FA03F3184680BDDB
:102FB800004402585C62000880B489B000AF7860B1
:102FC8009D4B9B6A03F00303BB619B4B9B6A1B0BE6
:102FD80003F03F037B61984BDB6A03F010033B610E
:102FE800954BDB6BDB08C3F30C033A6902FB03F375
:102FF80007EE903AF8EE677AC7ED037A7B69002B03
:1030080000F00A81BB69012B5AD0012B02D3022B95
:1030180078D099E0884B1B6803F02003002B2DD053
:10302800854B1B68DB0803F00303844A22FA03F389
:10303800BB60BB6807EE903AF8EE676A7B6907EEFB
:10304800903AF8EE677A86EEA77A7B4B9B6BC3F3D0
:10305800080307EE903AF8EE676A97ED036ADFED2A
:10306800785AC6EE257A76EEA77AF7EE006A77EEFA
:10307800A67A67EE277AC7ED077A87E07B6907EEBD
:10308800903AF8EE677ADFED6F6A86EEA77A6A4BB8
:103098009B6BC3F3080307EE903AF8EE676A97ED67
:1030A800036ADFED675AC6EE257A76EEA77AF7EE61
:1030B800006A77EEA67A67EE277AC7ED077A65E0A9
:1030C8007B6907EE903AF8EE677ADFED5F6A86EE85
:1030D800A77A594B9B6BC3F3080307EE903AF8EEB7
:1030E800676A97ED036ADFED565AC6EE257A76EEE3
:1030F800A77AF7EE006A77EEA67A67EE277AC7ED29
:10310800077A43E07B6907EE903AF8EE677ADFEDDD
:103118004F6A86EEA77A484B9B6BC3F3080307EE0A
:10312800903AF8EE676A97ED036ADFED455AC6EE06
:10313800257A76EEA77AF7EE006A77EEA67A67EE3A
:10314800277AC7ED077A21E07B6907EE903AF8EE17
:10315800677ADFED3D6A86EEA77A374B9B6BC3F340
:10316800080307EE903AF8EE676A97ED036ADFED19
:10317800345AC6EE257A76EEA77AF7EE006A77EE2D
:10318800A67A67EE277AC7ED077A00BF2A4B9B6BB2
:103198005B0A03F07F0307EE903AF8EE677AB7EE22
:1031A800007A37EE877AD7ED076AC6EE877AFCEEA3
:1031B800E77A17EE902A7B681A601F4B9B6B1B0CF3
:1031C80003F07F0307EE903AF8EE677AB7EE007ADD
:1031D80037EE877AD7ED076AC6EE877AFCEEE77A8C
:1031E80017EE902A7B685A60134B9B6B1B0E03F0FB
:1031F8007F0307EE903AF8EE677AB7EE007A37EE7B
:10320800877AD7ED076AC6EE877AFCEEE77A17EE7B
:10321800902A7B689A6008E07B6800221A607B68C5
:1032280000225A607B6800229A6000BF2437BD469E
:103238005DF8047B704700BF004402580090D0033B
:10324800000000460024744C0024744A20BCBE4B85
:1032580080B489B000AF78609D4B9B6A03F003038C
:10326800BB619B4B9B6A1B0D03F03F037B61984B33
:10327800DB6A03F480733B61954B5B6CDB08C3F33B
:103288000C033A6902FB03F307EE903AF8EE677A0B
:10329800C7ED037A7B69002B00F00A81BB69012B1B
:1032A8005AD0012B02D3022B78D099E0884B1B68A7
:1032B80003F02003002B2DD0854B1B68DB0803F09F
:1032C8000303844A22FA03F3BB60BB6807EE903A13
:1032D800F8EE676A7B6907EE903AF8EE677A86EE51
:1032E800A77A7B4B1B6CC3F3080307EE903AF8EE02
:1032F800676A97ED036ADFED785AC6EE257A76EEAF
:10330800A77AF7EE006A77EEA67A67EE277AC7ED16
:10331800077A87E07B6907EE903AF8EE677ADFED87
:103328006F6A86EEA77A6A4B1B6CC3F3080307EE35
:10333800903AF8EE676A97ED036ADFED675AC6EED2
:10334800257A76EEA77AF7EE006A77EEA67A67EE28
:10335800277AC7ED077A65E07B6907EE903AF8EEC1
:10336800677ADFED5F6A86EEA77A594B1B6CC3F369
:10337800080307EE903AF8EE676A97ED036ADFED07
:10338800565AC6EE257A76EEA77AF7EE006A77EEF9
:10339800A67A67EE277AC7ED077A43E07B6907EEDE
:1033A800903AF8EE677ADFED4F6A86EEA77A484BD7
:1033B8001B6CC3F3080307EE903AF8EE676A97EDC3
:1033C800036ADFED455AC6EE257A76EEA77AF7EE60
:1033D800006A77EEA67A67EE277AC7ED077A21E0CA
:1033E8007B6907EE903AF8EE677ADFED3D6A86EE84
:1033F800A77A374B1B6CC3F3080307EE903AF8EE35
:10340800676A97ED036ADFED345AC6EE257A76EEE1
:10341800A77AF7EE006A77EEA67A67EE277AC7ED05
:10342800077A00BF2A4B1B6C5B0A03F07F0307EE89
:10343800903AF8EE677AB7EE007A37EE877AD7EDEA
:10344800076AC6EE877AFCEEE77A17EE902A7B6861
:103458001A601F4B1B6C1B0C03F07F0307EE903A9E
:10346800F8EE677AB7EE007A37EE877AD7ED076A13
:10347800C6EE877AFCEEE77A17EE902A7B685A60E8
:10348800134B1B6C1B0E03F07F0307EE903AF8EE0C
:10349800677AB7EE007A37EE877AD7ED076AC6EE15
:1034A800877AFCEEE77A17EE902A7B689A6008E044
:1034B8007B6800221A607B6800225A607B680022C1
:1034C8009A6000BF2437BD465DF8047B704700BF93
:1034D800004402580090D003000000460024744CB9
:1034E8000024744A20BCBE4B80B500AFFEF7A4FC94
:1034F8000146084B9B691B0A03F00F03064AD35C7D
:1035080003F01F0321FA03F3044A1360034B1B68FB
:10351800184680BD004402585C6200080000002480
:1035280080B584B000AF786039600023FB73534BDB
:103538009B6A03F00303032B01D1012399E04F4B4E
:103548001B684E4A23F080631360FDF7DFFBB86009
:1035580008E0FDF7DBFB0246BB68D31A022B01D952
:10356800032386E0454B1B6803F00063002BF0D172
:10357800424B9B6A23F47C327B681B681B033F49E0
:1035880013438B627B685B68013BC3F308027B686B
:103598009B68013B5B029BB21A437B68DB68013B7B
:1035A8001B0403F4FE031A437B681B69013B1B06DB
:1035B80003F0FE43314913438B63304BDB6A23F03E
:1035C800C0027B685B692D491343CB622B4BDB6AD6
:1035D80023F020027B689B6928491343CB62274B61
:1035E800DB6A264A23F01003D362244BDA6B244BA0
:1035F80013407A68D269D20020491343CB631F4B2A
:10360800DB6A1E4A43F01003D3623B68002B06D1E5
:103618001A4BDB6A194A43F40023D3620FE03B6874
:10362800012B06D1154BDB6A144A43F48013D3628D
:1036380005E0124BDB6A114A43F40013D3620F4BC7
:103648001B680E4A43F080631360FDF75FFBB860A8
:1036580008E0FDF75BFB0246BB68D31A022B01D9D1
:10366800032306E0054B1B6803F00063002BF0D032
:10367800FB7B18461037BD4680BD00BF004402588A
:103688000700FFFF80B584B000AF78603960002381
:10369800FB73534B9B6A03F00303032B01D10123F4
:1036A80099E04F4B1B684E4A23F080531360FDF797
:1036B8002DFBB86008E0FDF729FB0246BB68D31A6A
:1036C800022B01D9032386E0454B1B6803F0005306
:1036D800002BF0D1424B9B6A23F07C727B681B68FD
:1036E8001B053F4913438B627B685B68013BC3F34F
:1036F80008027B689B68013B5B029BB21A437B68AC
:10370800DB68013B1B0403F4FE031A437B681B6957
:10371800013B1B0603F0FE43314913430B64304B56
:10372800DB6A23F440627B685B692D491343CB62F3
:103738002B4BDB6A23F400727B689B69284913438F
:10374800CB62274BDB6A264A23F48073D362244B6F
:103758005A6C244B13407A68D269D200204913432B
:103768004B641F4BDB6A1E4A43F48073D3623B6889
:10377800002B06D11A4BDB6A194A43F48003D36243
:103788000FE03B68012B06D1154BDB6A144A43F462
:103798000003D36205E0124BDB6A114A43F08073E1
:1037A800D3620F4B1B680E4A43F080531360FDF73A
:1037B800ADFAB86008E0FDF7A9FA0246BB68D31A6B
:1037C800022B01D9032306E0054B1B6803F00053C5
:1037D800002BF0D0FB7B18461037BD4680BD00BFDC
:1037E800004402580700FFFF80B582B000AF786040
:1037F8007B68002B01D1012342E07B68D3F880303D
:10380800002B06D17B68002283F87C207868FDF7BE
:10381800F7F87B682422C3F880207B681B681A6845
:103828007B681B6822F001021A60786800F0C4F80F
:103838000346012B01D1012322E07B689B6A002B00
:1038480002D0786802F036FA7B681B685A687B6891
:103858001B6822F490425A607B681B689A687B68F0
:103868001B6822F02A029A607B681B681A687B68CA
:103878001B6842F001021A60786802F0BDFA03463C
:1038880018460837BD4680BD80B58AB002AFF860DB
:10389800B9603B601346FB80FB68D3F88030202B6F
:1038A80040F08380BB68002B02D0FB88002B01D13D
:1038B80001237BE0FB6893F87C30012B01D10223C4
:1038C80074E0FB68012283F87C20FB680022C3F8BF
:1038D8008820FB682122C3F88020FDF717FA786159
:1038E800FB68FA88A3F85420FB68FA88A3F85620E6
:1038F800FB689B68B3F5805F08D1FB681B69002BE8
:1039080004D10023FB61BB68BB6103E0BB68FB61BA
:103918000023BB612CE03B6800937B690022802177
:10392800F86802F0B1FA0346002B01D003233DE00A
:10393800FB69002B0BD1BB691B881A46FB681B6807
:10394800C2F308029A62BB690233BB6107E0FB69F4
:103958001A78FB681B689A62FB690133FB61FB6894
:10396800B3F856309BB2013B9AB2FB68A3F85620D5
:10397800FB68B3F856309BB2002BCCD13B68009360
:103988007B6900224021F86802F07EFA0346002B8A
:1039980001D003230AE0FB682022C3F88020FB68DB
:1039A800002283F87C20002300E0022318462037F9
:1039B800BD4680BD000000002DE9904890B000AFE2
:1039C800786000237B63002387F833300023FB6291
:1039D8007B689A687B681B691A437B685B691A4332
:1039E8007B68DB691343FB637B685B6EFA6B13438D
:1039F800FB637B681B681A68C14B13407A681268BE
:103A0800F96B0B4313607B681B685B6823F44051B8
:103A18007B68DA687B681B680A435A607B689B6925
:103A2800FB637B681B68B74A934204D07B681B6AB8
:103A3800FA6B1343FB637B681B689A68B24B1340AD
:103A48007A681268F96B0B4393607B681B68DB6AC2
:103A580023F00F017B685A6A7B681B680A43DA62A5
:103A68007B681B68A94A934277D1A94B5B6D03F029
:103A78003803282B6CD801A252F823F0293B000800
:103A8800593B0008593B0008593B0008593B0008BE
:103A9800593B0008593B0008593B0008313B0008D6
:103AA800593B0008593B0008593B0008593B00089E
:103AB800593B0008593B0008593B0008393B0008AE
:103AC800593B0008593B0008593B0008593B00087E
:103AD800593B0008593B0008593B0008413B000886
:103AE800593B0008593B0008593B0008593B00085E
:103AF800593B0008593B0008593B0008493B00085E
:103B0800593B0008593B0008593B0008593B00083D
:103B1800593B0008593B0008593B0008513B000835
:103B2800012387F83B3033E2042387F83B302FE248
:103B3800082387F83B302BE2102387F83B3027E235
:103B4800202387F83B3023E2402387F83B301FE2ED
:103B5800802387F83B3000BF1AE27B681B686D4AF8
:103B6800934232D16A4B5B6D03F00703052B27D8CC
:103B780001A252F823F000BF993B0008A13B0008BE
:103B8800A93B0008B13B0008B93B0008C13B00084D
:103B9800002387F83B30FBE1042387F83B30F7E14B
:103BA800082387F83B30F3E1102387F83B30EFE137
:103BB800202387F83B30EBE1402387F83B30E7E1EF
:103BC800802387F83B3000BFE2E17B681B68524ADC
:103BD800934232D14E4B5B6D03F00703052B27D878
:103BE80001A252F823F000BF093C0008113C00086C
:103BF800193C0008213C0008293C0008313C000819
:103C0800002387F83B30C3E1042387F83B30BFE14A
:103C1800082387F83B30BBE1102387F83B30B7E136
:103C2800202387F83B30B3E1402387F83B30AFE1EE
:103C3800802387F83B3000BFAAE17B681B68374ABE
:103C4800934232D1324B5B6D03F00703052B27D823
:103C580001A252F823F000BF793C0008813C00081B
:103C6800893C0008913C0008993C0008A13C0008E8
:103C7800002387F83B308BE1042387F83B3087E14A
:103C8800082387F83B3083E1102387F83B307FE136
:103C9800202387F83B307BE1402387F83B3077E1EE
:103CA800802387F83B3000BF72E17B681B681C4AA1
:103CB800934244D1164B5B6D03F00703052B39D8AB
:103CC80001A252F823F000BFE93C0008F13C0008CB
:103CD800F93C0008013D00082D3D0008353D00086D
:103CE800002387F83B3053E1042387F83B304FE14A
:103CF800082387F83B304BE1102387F83B3047E136
:103D0800F369FFCF000C0058FFF4FF1100100140C9
:103D1800004402580044004000480040004C004065
:103D280000500040202387F83B3031E1402387F8DA
:103D38003B302DE1802387F83B3000BF28E17B68CA
:103D48001B68C34A934278D1C24B5B6D03F03803BA
:103D5800282B6DD801A252F823F000BF093E0008B5
:103D6800393E0008393E0008393E0008393E00084F
:103D7800393E0008393E0008393E0008113E000867
:103D8800393E0008393E0008393E0008393E00082F
:103D9800393E0008393E0008393E0008193E00083F
:103DA800393E0008393E0008393E0008393E00080F
:103DB800393E0008393E0008393E0008213E000817
:103DC800393E0008393E0008393E0008393E0008EF
:103DD800393E0008393E0008393E0008293E0008EF
:103DE800393E0008393E0008393E0008393E0008CF
:103DF800393E0008393E0008393E0008313E0008C7
:103E0800012387F83B30C3E0042387F83B30BFE049
:103E1800082387F83B30BBE0102387F83B30B7E036
:103E2800202387F83B30B3E0402387F83B30AFE0EE
:103E3800802387F83B3000BFAAE07B681B68864A6E
:103E4800934232D1834B5B6D03F00703052B27D8D0
:103E580001A252F823F000BF793E0008813E000815
:103E6800893E0008913E0008993E0008A13E0008DE
:103E7800002387F83B308BE0042387F83B3087E04A
:103E8800082387F83B3083E0102387F83B307FE036
:103E9800202387F83B307BE0402387F83B3077E0EE
:103EA800802387F83B3000BF72E07B681B686B4A51
:103EB800934232D1674B5B6D03F00703052B27D87C
:103EC80001A252F823F000BFE93E0008F13E0008C5
:103ED800F93E0008013F0008093F0008113F0008AB
:103EE800002387F83B3053E0042387F83B304FE04A
:103EF800082387F83B304BE0102387F83B3047E036
:103F0800202387F83B3043E0402387F83B303FE0ED
:103F1800802387F83B3000BF3AE07B681B68504A33
:103F2800934232D14B4B9B6D03F00703052B27D8E7
:103F380001A252F823F000BF593F0008613F000872
:103F4800693F0008713F0008793F0008813F000879
:103F5800022387F83B301BE0042387F83B3017E047
:103F6800082387F83B3013E0102387F83B300FE035
:103F7800202387F83B300BE0402387F83B3007E0ED
:103F8800802387F83B3000BF02E0802387F83B306E
:103F98007B681B68324A934240F0F78697F83B30BB
:103FA800082B00F0C080082B04DC022B0CD0042B5B
:103FB80065D07AE2202B00F0B081402B00F01E8201
:103FC800102B00F0048170E2FEF7E0FF02467B68E8
:103FD8005B6A002B4ED07B685B6A012B48D07B68FC
:103FE8005B6A022B42D07B685B6A032B3CD07B6800
:103FF8005B6A042B36D07B685B6A052B26D07B680E
:104008005B6A062B20D07B685B6A072B1AD07B681B
:104018005B6A082B14D07B685B6A092B0ED07B681F
:104028005B6A0A2B08D07B685B6A0B2B02D14FF4C2
:10403800807320E001231EE080231CE040231AE067
:10404800202318E0102316E00C2314E00A2312E0C2
:10405800001401400044025800780040007C0040F1
:10406800000C0058082306E0062304E0042302E0BD
:10407800022300E00123B2FBF3F3FB6219E207F12C
:1040880018031846FEF798FFFA697B685B6A002BED
:1040980044D07B685B6A012B3ED07B685B6A022B4D
:1040A80038D07B685B6A032B32D07B685B6A042B51
:1040B8002CD07B685B6A052B26D07B685B6A062B55
:1040C80020D07B685B6A072B1AD07B685B6A082B59
:1040D80014D07B685B6A092B0ED07B685B6A0A2B5D
:1040E80008D07B685B6A0B2B02D14FF4807316E013
:1040F800012314E0802312E0402310E020230EE087
:1041080010230CE00C230AE00A2308E0082306E049
:10411800062304E0042302E0022300E00123B2FBAB
:10412800F3F3FB62C5E107F10C031846FFF790F8BB
:104138003A697B685B6A002B44D07B685B6A012B19
:104148003ED07B685B6A022B38D07B685B6A032BA6
:1041580032D07B685B6A042B2CD07B685B6A052BAA
:1041680026D07B685B6A062B20D07B685B6A072BAE
:104178001AD07B685B6A082B14D07B685B6A092BB2
:104188000ED07B685B6A0A2B08D07B685B6A0B2BB6
:1041980002D14FF4807316E0012314E0802312E06B
:1041A800402310E020230EE010230CE00C230AE04B
:1041B8000A2308E0082306E0062304E0042302E0BB
:1041C800022300E00123B2FBF3F3FB6271E17A4BB7
:1041D8001B6803F02003002B54D0774B1B68DB08C7
:1041E80003F00303754ADA407B685B6A002B44D00E
:1041F8007B685B6A012B3ED07B685B6A022B38D0F8
:104208007B685B6A032B32D07B685B6A042B2CD0FB
:104218007B685B6A052B26D07B685B6A062B20D0FF
:104228007B685B6A072B1AD07B685B6A082B14D003
:104238007B685B6A092B0ED07B685B6A0A2B08D007
:104248007B685B6A0B2B02D14FF4807316E0012365
:1042580014E0802312E0402310E020230EE0102316
:104268000CE00C230AE00A2308E0082306E00623F2
:1042780004E0042302E0022300E00123B2FBF3F38D
:10428800FB6216E17B685B6A002B43D07B685B6A44
:10429800012B3DD07B685B6A022B37D07B685B6A59
:1042A800032B31D07B685B6A042B2BD07B685B6A5D
:1042B800052B25D07B685B6A062B1FD07B685B6A61
:1042C800072B19D07B685B6A082B13D07B685B6A65
:1042D800092B0DD07B685B6A0A2B07D07B685B6A69
:1042E8000B2B01D1364B16E0344B14E0354B12E062
:1042F800354B10E0354B0EE0354B0CE0354B0AE002
:10430800354B08E0354B06E0354B04E0354B02E011
:10431800354B00E0294BFB62CBE07B685B6A002BE6
:1043280046D07B685B6A012B40D07B685B6A022BB6
:104338003AD07B685B6A032B34D07B685B6A042BBA
:104348002ED07B685B6A052B28D07B685B6A062BBE
:1043580022D07B685B6A072B1CD07B685B6A082BC2
:1043680016D07B685B6A092B0FD07B685B6A0A2BC7
:1043780008D07B685B6A0B2B02D143F6095318E01F
:10438800134B16E047F6122313E04FF2244310E0D4
:10439800164B0EE00A4B0CE0154B0AE0154B08E0F3
:1043A800084B06E0144B04E0074B02E0074B00E023
:1043B800074BFB627DE000BF004402580090D00329
:1043C80090D0030020A1070040420F0080841E0007
:1043D80000093D005561510000A8610000127A00F3
:1043E800AAC2A2000024F4000048E80148E801003D
:1043F80015160500801A06002A2C0A007B685B6ADD
:10440800002B4ED07B685B6A012B47D07B685B6AC8
:10441800022B40D07B685B6A032B39D07B685B6AD0
:10442800042B32D07B685B6A052B2BD07B685B6AD8
:10443800062B24D07B685B6A072B1DD07B685B6AE0
:10444800082B16D07B685B6A092B0FD07B685B6AE8
:104458000A2B08D07B685B6A0B2B01D1802322E0F2
:104468004FF400431FE04FF480731CE04FF40073D7
:1044780019E04FF4806316E04FF4006313E040F650
:10448800AA2310E040F6CC430DE04FF480530AE035
:1044980041F2555307E04FF4005304E04FF48043D2
:1044A80001E04FF40043FB6203E0012387F8333057
:1044B80000BFFB6A002B01F0E8837B685A6813464B
:1044C8005B001344FA6A9A4205D37B685B681B0356
:1044D800FA6A9A4204D9012387F8333001F0D5BB30
:1044E80097F83B30082B00F05481082B06DC022B90
:1044F8000FD0042B00F0AC8000F030BC202B00F073
:104508002D83402B00F0A583102B00F0E38100F0F1
:1045180025BCFEF73BFDB862BB6A18464FF00001A8
:104528007B685B6A002B67D07B685B6A012B5ED077
:104538007B685B6A022B55D07B685B6A032B4CD087
:104548007B685B6A042B43D07B685B6A052B3AD097
:104558007B685B6A062B31D07B685B6A072B28D0A7
:104568007B685B6A082B1FD07B685B6A092B16D0B7
:104578007B685B6A0A2B0DD07B685B6A0B2B04D1C6
:104588004FF480734FF000043AE04FF001034FF00E
:10459800000435E04FF080034FF0000430E04FF0A6
:1045A80040034FF000042BE04FF020034FF00004CD
:1045B80026E04FF010034FF0000421E04FF00C0309
:1045C8004FF000041CE04FF00A034FF0000417E01E
:1045D8004FF008034FF0000412E04FF006034FF0CD
:1045E80000040DE04FF004034FF0000408E04FF022
:1045F80002034FF0000403E04FF001034FF0000402
:104608001A462346FBF76CFE03460C46194622461B
:104618004FF000034FF00004140244EA11640B0247
:104628007A685268520811464FF0000213EB010BEA
:1046380044EB020C584661467B685B684FF0000407
:104648001A462346FBF74CFE03460C467B6389E378
:1046580007F118031846FEF7AFFCFB6918464FF040
:1046680000017B685B6A002B67D07B685B6A012B63
:104678005ED07B685B6A022B55D07B685B6A032B34
:104688004CD07B685B6A042B43D07B685B6A052B44
:104698003AD07B685B6A062B31D07B685B6A072B54
:1046A80028D07B685B6A082B1FD07B685B6A092B64
:1046B80016D07B685B6A0A2B0DD07B685B6A0B2B74
:1046C80004D14FF480734FF000043AE04FF0010337
:1046D8004FF0000435E04FF080034FF0000430E065
:1046E8004FF040034FF000042BE04FF020034FF051
:1046F800000426E04FF010034FF0000421E04FF0D3
:104708000C034FF000041CE04FF00A034FF00004C4
:1047180017E04FF008034FF0000412E04FF00603D3
:104728004FF000040DE04FF004034FF0000408E0E0
:104738004FF002034FF0000403E04FF001034FF085
:1047480000041A462346FBF7CBFD03460C461946E0
:1047580022464FF000034FF00004140244EA1164AB
:104768000B027A685268520811464FF0000213EBA8
:10477800010B44EB020C584661467B685B684FF0BE
:1047880000041A462346FBF7ABFD03460C467B6341
:10479800E8E207F10C031846FEF75AFD3B69184694
:1047A8004FF000017B685B6A002B67D07B685B6A0F
:1047B800012B5ED07B685B6A022B55D07B685B6AF5
:1047C800032B4CD07B685B6A042B43D07B685B6A05
:1047D800052B3AD07B685B6A062B31D07B685B6A15
:1047E800072B28D07B685B6A082B1FD07B685B6A25
:1047F800092B16D07B685B6A0A2B0DD07B685B6A35
:104808000B2B04D14FF480734FF000043AE04FF0C3
:1048180001034FF0000435E04FF080034FF000042F
:1048280030E04FF040034FF000042BE04FF020033E
:104838004FF0000426E04FF010034FF0000421E091
:104848004FF00C034FF000041CE04FF00A034FF048
:10485800000417E04FF008034FF0000412E04FF097
:1048680006034FF000040DE04FF004034FF000047E
:1048780008E04FF002034FF0000403E04FF001039B
:104888004FF000041A462346FBF72AFD03460C4660
:10489800194622464FF000034FF00004140244EA80
:1048A80011640B027A685268520811464FF00002F0
:1048B80013EB010B44EB020C584661467B685B68BE
:1048C8004FF000041A462346FBF70AFD03460C4640
:1048D8007B6347E2964B1B6803F02003002B00F034
:1048E800A380934B1B68DB0803F00303914A22FA69
:1048F80003F318464FF000017B685B6A002B67D012
:104908007B685B6A012B5ED07B685B6A022B55D0A3
:104918007B685B6A032B4CD07B685B6A042B43D0B3
:104928007B685B6A052B3AD07B685B6A062B31D0C3
:104938007B685B6A072B28D07B685B6A082B1FD0D3
:104948007B685B6A092B16D07B685B6A0A2B0DD0E3
:104958007B685B6A0B2B04D14FF480734FF0000423
:104968003AE04FF001034FF0000435E04FF08003C8
:104978004FF0000430E04FF040034FF000042BE00C
:104988004FF020034FF0000426E04FF010034FF0E3
:10499800000421E04FF00C034FF000041CE04FF03E
:1049A8000A034FF0000417E04FF008034FF000042B
:1049B80012E04FF006034FF000040DE04FF004033F
:1049C8004FF0000408E04FF002034FF0000403E04A
:1049D8004FF001034FF000041A462346FBF780FC12
:1049E80003460C46194622464FF000034FF00004D8
:1049F800140244EA11640B027A685268520811469C
:104A08004FF0000213EB010B44EB020C58466146D1
:104A18007B685B684FF000041A462346FBF760FC8E
:104A280003460C467B639DE17B685B6A002B5BD089
:104A38007B685B6A012B53D07B685B6A022B4BD087
:104A48007B685B6A032B43D07B685B6A042B3BD093
:104A58007B685B6A052B33D07B685B6A062B2BD09F
:104A68007B685B6A072B23D07B685B6A082B1BD0AB
:104A78007B685B6A092B13D07B685B6A0A2B0BD0B7
:104A88007B685B6A0B2B03D12A4B4FF000042EE0A6
:104A9800294B4FF003042AE0284B4FF0000426E08E
:104AA800274B4FF0000422E0264B4FF000041EE095
:104AB800254B4FF000041AE019A4D4E9003416E09D
:104AC800224B4FF0000412E0214B4FF000040EE09F
:104AD80015A4D4E900340AE01E4B4FF0000406E0A8
:104AE8001D4B4FF0010402E0134B4FF003047A68AA
:104AF8005268520811464FF0000213EB010B44EBC9
:104B0800020C584661467B685B684FF000041A4601
:104B18002346FBF7E5FB03460C467B6322E100BF17
:104B2800005561510000000000AAC2A20000000068
:104B3800004402580090D003000090D00020A10744
:104B48000040420F0080841E0000093D0000A8615B
:104B58000000127A000024F4000048E87B685B6AD1
:104B6800002B5BD07B685B6A012B53D07B685B6A48
:104B7800022B4BD07B685B6A032B43D07B685B6A54
:104B8800042B3BD07B685B6A052B33D07B685B6A60
:104B9800062B2BD07B685B6A072B23D07B685B6A6C
:104BA800082B1BD07B685B6A092B13D07B685B6A78
:104BB8000A2B0BD07B685B6A0B2B03D1C04B4FF0E1
:104BC80000042EE0BF4B4FF000042AE0BE4B4FF02C
:104BD800000426E0BD4B4FF0000422E0BC4B4FF030
:104BE80000041EE0BB4B4FF000041AE0B0A4D4E967
:104BF800003416E0B84B4FF0000412E0B74B4FF00A
:104C080000040EE0ACA4D4E900340AE0B44B4FF041
:104C1800000406E0B34B4FF0000402E0A94B4FF04C
:104C280000047A685268520811464FF0000213EBEC
:104C3800010B44EB020C584661467B685B684FF0F9
:104C480000041A462346FBF74BFB03460C467B63DE
:104C580088E07B685B6A002B64D07B685B6A012B09
:104C68005BD07B685B6A022B52D07B685B6A032B44
:104C78004AD07B685B6A042B41D07B685B6A052B52
:104C880039D07B685B6A062B31D07B685B6A072B5F
:104C980028D07B685B6A082B1FD07B685B6A092B6E
:104CA80016D07B685B6A0A2B0DD07B685B6A0B2B7E
:104CB80004D14FF400434FF0000437E04FF40003F1
:104CC8004FF0000432E04FF480334FF000042DE041
:104CD8004FF400334FF0000428E04FF480234FF0E6
:104CE800000423E04FF400234FF000041EE07E4B45
:104CF8004FF000041AE07D4B4FF0000416E04FF42B
:104D080080134FF0000411E0794B4FF000040DE0E0
:104D18004FF400134FF0000408E04FF480034FF005
:104D2800000403E04FF400034FF000047A6852686F
:104D3800520811464FF0000213EB010B44EB020C32
:104D4800584661467B685B684FF000041A46234664
:104D5800FBF7C6FA03460C467B6303E0012387F89A
:104D6800333000BF7B6BB3F5407F09D37B6BB3F562
:104D7800801F05D27B681B687A6BDA6000F085BFFC
:104D8800012387F8333000F080BF7B68DB69B3F517
:104D9800004F40F0DA8397F83B30402B00F2B383A2
:104DA80001A252F823F000BFFD4E0008B54F0008DD
:104DB8000F5500080F5500086D5000080F550008E2
:104DC8000F5500080F550008295100080F55000815
:104DD8000F5500080F5500080F5500080F5500081B
:104DE8000F5500080F550008E55100080F55000839
:104DF8000F5500080F5500080F5500080F550008FB
:104E08000F5500080F5500080F5500080F550008EA
:104E18000F5500080F5500080F5500080F550008DA
:104E28000F5500080F550008575300080F55000884
:104E38000F5500080F5500080F5500080F550008BA
:104E48000F5500080F5500080F5500080F550008AA
:104E58000F5500080F5500080F5500080F5500089A
:104E68000F5500080F5500080F5500080F5500088A
:104E78000F5500080F5500080F5500080F5500087A
:104E88000F5500080F5500080F5500080F5500086A
:104E98000F5500080F5500080F5500080F5500085A
:104EA8000F5500080F5500084D540008AFF3008057
:104EB8000015160500000000002A2C0A000000005A
:104EC80000093D000000093D00127A000024F400AA
:104ED8000048E8010090D00300801A060020A107CE
:104EE8000040420F0080841E00AA0A0000CC0C007B
:104EF80000551500FDF72EF9B8627B685B6A002B38
:104F080044D07B685B6A012B3ED07B685B6A022BCE
:104F180038D07B685B6A032B32D07B685B6A042BD2
:104F28002CD07B685B6A052B26D07B685B6A062BD6
:104F380020D07B685B6A072B1AD07B685B6A082BDA
:104F480014D07B685B6A092B0ED07B685B6A0A2BDE
:104F580008D07B685B6A0B2B02D14FF4807316E094
:104F6800012314E0802312E0402310E020230EE008
:104F780010230CE00C230AE00A2308E0082306E0CB
:104F8800062304E0042302E0022300E00123BA6AB6
:104F9800B2FBF3F35A007B685B685B081A447B68D2
:104FA8005B68B2FBF3F39BB27B63B0E2FDF7E8F812
:104FB800B8627B685B6A002B44D07B685B6A012B14
:104FC8003ED07B685B6A022B38D07B685B6A032B18
:104FD80032D07B685B6A042B2CD07B685B6A052B1C
:104FE80026D07B685B6A062B20D07B685B6A072B20
:104FF8001AD07B685B6A082B14D07B685B6A092B24
:105008000ED07B685B6A0A2B08D07B685B6A0B2B27
:1050180002D14FF4807316E0012314E0802312E0DC
:10502800402310E020230EE010230CE00C230AE0BC
:105038000A2308E0082306E0062304E0042302E02C
:10504800022300E00123BA6AB2FBF3F35A007B683B
:105058005B685B081A447B685B68B2FBF3F39BB23E
:105068007B6354E207F118031846FDF7A5FFFA69B8
:105078007B685B6A002B44D07B685B6A012B3ED05F
:105088007B685B6A022B38D07B685B6A032B32D063
:105098007B685B6A042B2CD07B685B6A052B26D067
:1050A8007B685B6A062B20D07B685B6A072B1AD06B
:1050B8007B685B6A082B14D07B685B6A092B0ED06F
:1050C8007B685B6A0A2B08D07B685B6A0B2B02D172
:1050D8004FF4807316E0012314E0802312E040238C
:1050E80010E020230EE010230CE00C230AE00A2332
:1050F80008E0082306E0062304E0042302E0022374
:1051080000E00123B2FBF3F35A007B685B685B089D
:105118001A447B685B68B2FBF3F39BB27B63F6E1EE
:1051280007F10C031846FEF793F83A697B685B6A47
:10513800002B44D07B685B6A012B3ED07B685B6A9E
:10514800022B38D07B685B6A032B32D07B685B6AA2
:10515800042B2CD07B685B6A052B26D07B685B6AA6
:10516800062B20D07B685B6A072B1AD07B685B6AAA
:10517800082B14D07B685B6A092B0ED07B685B6AAE
:105188000A2B08D07B685B6A0B2B02D14FF4807323
:1051980016E0012314E0802312E0402310E02023CE
:1051A8000EE010230CE00C230AE00A2308E0082391
:1051B80006E0062304E0042302E0022300E00123C2
:1051C800B2FBF3F35A007B685B685B081A447B68A0
:1051D8005B68B2FBF3F39BB27B6398E1874B1B6878
:1051E80003F02003002B5ED0844B1B68DB0803F020
:1051F8000303834ADA407B685B6A002B44D07B68F0
:105208005B6A012B3ED07B685B6A022B38D07B68D7
:105218005B6A032B32D07B685B6A042B2CD07B68DB
:105228005B6A052B26D07B685B6A062B20D07B68DF
:105238005B6A072B1AD07B685B6A082B14D07B68E3
:105248005B6A092B0ED07B685B6A0A2B08D07B68E7
:105258005B6A0B2B02D14FF4807316E0012314E034
:10526800802312E0402310E020230EE010230CE0FE
:105278000C230AE00A2308E0082306E0062304E0DA
:10528800042302E0022300E00123B2FBF3F35A00F7
:105298007B685B685B081A447B685B68B2FBF3F366
:1052A8009BB27B6333E17B685B6A002B43D07B68EE
:1052B8005B6A012B3DD07B685B6A022B37D07B6829
:1052C8005B6A032B31D07B685B6A042B2BD07B682D
:1052D8005B6A052B25D07B685B6A062B1FD07B6831
:1052E8005B6A072B19D07B685B6A082B13D07B6835
:1052F8005B6A092B0DD07B685B6A0A2B07D07B6839
:105308005B6A0B2B01D13F4B16E03F4B14E03F4B40
:1053180012E03F4B10E03F4B0EE03F4B0CE03F4BA1
:105328000AE03F4B08E03F4B06E03F4B04E03F4BB1
:1053380002E0334B00E0344B7A68526852081A4452
:105348007B685B68B2FBF3F39BB27B63DFE07B684F
:105358005B6A002B45D07B685B6A012B3FD07B687A
:105368005B6A022B39D07B685B6A032B33D07B687E
:105378005B6A042B2DD07B685B6A052B27D07B6882
:105388005B6A062B21D07B685B6A072B1BD07B6886
:105398005B6A082B15D07B685B6A092B0FD07B688A
:1053A8005B6A0A2B08D07B685B6A0B2B02D147F635
:1053B800122317E0184B15E04FF2244312E01C4B60
:1053C80010E01C4B0EE00F4B0CE01B4B0AE01B4B94
:1053D80008E00E4B06E01A4B04E00D4B02E00D4BC3
:1053E80000E00D4B7A68526852081A447B685B6883
:1053F800B2FBF3F39BB27B6389E000BF0044025821
:105408000090D00320A107000020A10740420F0010
:1054180080841E0000093D0000127A00AAC2A20082
:105428000050C3000024F400548545010048E801F9
:1054380048E8010090D003002A2C0A0000350C002F
:10544800545814007B685B6A002B4FD07B685B6AFA
:10545800012B48D07B685B6A022B41D07B685B6A72
:10546800032B3AD07B685B6A042B33D07B685B6A7A
:10547800052B2CD07B685B6A062B25D07B685B6A82
:10548800072B1ED07B685B6A082B17D07B685B6A8A
:10549800092B10D07B685B6A0A2B09D07B685B6A92
:1054A8000B2B02D14FF4807322E04FF480331FE0BE
:1054B8004FF400731CE04FF4806319E04FF400636D
:1054C80016E04FF4805313E041F2545310E041F6D4
:1054D80098130DE04FF400530AE042F6AA2307E0C0
:1054E8004FF4804304E04FF4004301E04FF480336D
:1054F8007A68526852081A447B685B68B2FBF3F317
:105508009BB27B6303E0012387F8333000BF7B6BDA
:105518000F2B16D97B6BB3F5803F12D27B6B9BB2F6
:1055280023F00F03FB847B6B5B089BB203F007033C
:105538009AB2FB8C1343FB847B681B68FA8CDA6095
:10554800A3E3012387F833309FE397F83B30402BE0
:1055580000F2888301A252F823F000BF69560008C0
:105568001F5700086D5C00086D5C0008D5570008DF
:105578006D5C00086D5C00086D5C00088F580008C1
:105588006D5C00086D5C00086D5C00086D5C0008CF
:105598006D5C00086D5C00086D5C000849590008E6
:1055A8006D5C00086D5C00086D5C00086D5C0008AF
:1055B8006D5C00086D5C00086D5C00086D5C00089F
:1055C8006D5C00086D5C00086D5C00086D5C00088F
:1055D8006D5C00086D5C00086D5C0008B95A000835
:1055E8006D5C00086D5C00086D5C00086D5C00086F
:1055F8006D5C00086D5C00086D5C00086D5C00085F
:105608006D5C00086D5C00086D5C00086D5C00084E
:105618006D5C00086D5C00086D5C00086D5C00083E
:105628006D5C00086D5C00086D5C00086D5C00082E
:105638006D5C00086D5C00086D5C00086D5C00081E
:105648006D5C00086D5C00086D5C00086D5C00080E
:105658006D5C00086D5C00086D5C0008AD5B0008BF
:10566800FCF778FDB8627B685B6A002B44D07B68E6
:105678005B6A012B3ED07B685B6A022B38D07B6863
:105688005B6A032B32D07B685B6A042B2CD07B6867
:105698005B6A052B26D07B685B6A062B20D07B686B
:1056A8005B6A072B1AD07B685B6A082B14D07B686F
:1056B8005B6A092B0ED07B685B6A0A2B08D07B6873
:1056C8005B6A0B2B02D14FF4807316E0012314E0C0
:1056D800802312E0402310E020230EE010230CE08A
:1056E8000C230AE00A2308E0082306E0062304E066
:1056F800042302E0022300E00123BA6AB2FBF3F2BA
:105708007B685B685B081A447B685B68B2FBF3F3F1
:105718009BB27B63AAE2FCF733FDB8627B685B6AE5
:10572800002B44D07B685B6A012B3ED07B685B6AA8
:10573800022B38D07B685B6A032B32D07B685B6AAC
:10574800042B2CD07B685B6A052B26D07B685B6AB0
:10575800062B20D07B685B6A072B1AD07B685B6AB4
:10576800082B14D07B685B6A092B0ED07B685B6AB8
:105778000A2B08D07B685B6A0B2B02D14FF480732D
:1057880016E0012314E0802312E0402310E02023D8
:105798000EE010230CE00C230AE00A2308E008239B
:1057A80006E0062304E0042302E0022300E00123CC
:1057B800BA6AB2FBF3F27B685B685B081A447B68E1
:1057C8005B68B2FBF3F39BB27B634FE207F118030C
:1057D8001846FDF7F1FBFA697B685B6A002B44D039
:1057E8007B685B6A012B3ED07B685B6A022B38D0F2
:1057F8007B685B6A032B32D07B685B6A042B2CD0F6
:105808007B685B6A052B26D07B685B6A062B20D0F9
:105818007B685B6A072B1AD07B685B6A082B14D0FD
:105828007B685B6A092B0ED07B685B6A0A2B08D001
:105838007B685B6A0B2B02D14FF4807316E001235F
:1058480014E0802312E0402310E020230EE0102310
:105858000CE00C230AE00A2308E0082306E00623EC
:1058680004E0042302E0022300E00123B2FBF3F288
:105878007B685B685B081A447B685B68B2FBF3F380
:105888009BB27B63F2E107F10C031846FDF7E0FCDD
:105898003A697B685B6A002B44D07B685B6A012BA2
:1058A8003ED07B685B6A022B38D07B685B6A032B2F
:1058B80032D07B685B6A042B2CD07B685B6A052B33
:1058C80026D07B685B6A062B20D07B685B6A072B37
:1058D8001AD07B685B6A082B14D07B685B6A092B3B
:1058E8000ED07B685B6A0A2B08D07B685B6A0B2B3F
:1058F80002D14FF4807316E0012314E0802312E0F4
:10590800402310E020230EE010230CE00C230AE0D3
:105918000A2308E0082306E0062304E0042302E043
:10592800022300E00123B2FBF3F27B685B685B08AB
:105938001A447B685B68B2FBF3F39BB27B6395E127
:10594800874B1B6803F02003002B5DD0844B1B683A
:10595800DB0803F00303834ADA407B685B6A002BA9
:1059680044D07B685B6A012B3ED07B685B6A022B64
:1059780038D07B685B6A032B32D07B685B6A042B68
:105988002CD07B685B6A052B26D07B685B6A062B6C
:1059980020D07B685B6A072B1AD07B685B6A082B70
:1059A80014D07B685B6A092B0ED07B685B6A0A2B74
:1059B80008D07B685B6A0B2B02D14FF4807316E02A
:1059C800012314E0802312E0402310E020230EE09E
:1059D80010230CE00C230AE00A2308E0082306E061
:1059E800062304E0042302E0022300E00123B2FBC3
:1059F800F3F27B685B685B081A447B685B68B2FB00
:105A0800F3F39BB27B6331E17B685B6A002B43D085
:105A18007B685B6A012B3DD07B685B6A022B37D0C1
:105A28007B685B6A032B31D07B685B6A042B2BD0C5
:105A38007B685B6A052B25D07B685B6A062B1FD0C9
:105A48007B685B6A072B19D07B685B6A082B13D0CD
:105A58007B685B6A092B0DD07B685B6A0A2B07D0D1
:105A68007B685B6A0B2B01D13F4B16E03D4B14E082
:105A78003E4B12E03E4B10E03E4B0EE03E4B0CE03E
:105A88003E4B0AE03E4B08E03E4B06E03E4B04E04E
:105A98003E4B02E03E4B00E0324B7A6852685208B7
:105AA8001A447B685B68B2FBF3F39BB27B63DDE06F
:105AB8007B685B6A002B46D07B685B6A012B40D011
:105AC8007B685B6A022B3AD07B685B6A032B34D015
